{"abi":[{"type":"constructor","inputs":[{"name":"escrowAddr","type":"address","internalType":"address"}],"stateMutability":"nonpayable"},{"type":"function","name":"accuracyRevealed","inputs":[{"name":"","type":"string","internalType":"string"}],"outputs":[{"name":"","type":"bool","internalType":"bool"}],"stateMutability":"view"},{"type":"function","name":"distribute","inputs":[{"name":"taskID","type":"string","internalType":"string"},{"name":"miners","type":"address[]","internalType":"address[]"}],"outputs":[],"stateMutability":"nonpayable"},{"type":"function","name":"escrow","inputs":[],"outputs":[{"name":"","type":"address","internalType":"contract IEscrow"}],"stateMutability":"view"},{"type":"function","name":"minerReveals","inputs":[{"name":"","type":"string","internalType":"string"},{"name":"","type":"address","internalType":"address"}],"outputs":[{"name":"score","type":"uint256","internalType":"uint256"},{"name":"revealed","type":"bool","internalType":"bool"}],"stateMutability":"view"},{"type":"function","name":"revealAccuracy","inputs":[{"name":"taskID","type":"string","internalType":"string"},{"name":"accuracy","type":"uint256","internalType":"uint256"},{"name":"nonce","type":"bytes32","internalType":"bytes32"},{"name":"commitHash","type":"bytes32","internalType":"bytes32"}],"outputs":[],"stateMutability":"nonpayable"},{"type":"function","name":"revealScore","inputs":[{"name":"taskID","type":"string","internalType":"string"},{"name":"score","type":"uint256","internalType":"uint256"},{"name":"nonce","type":"bytes32","internalType":"bytes32"},{"name":"scoreCommit","type":"bytes32","internalType":"bytes32"}],"outputs":[],"stateMutability":"nonpayable"},{"type":"function","name":"rewardsDistributed","inputs":[{"name":"","type":"string","internalType":"string"}],"outputs":[{"name":"","type":"bool","internalType":"bool"}],"stateMutability":"view"},{"type":"function","name":"totalScore","inputs":[{"name":"","type":"string","internalType":"string"}],"outputs":[{"name":"","type":"uint256","internalType":"uint256"}],"stateMutability":"view"},{"type":"event","name":"AccuracyRevealed","inputs":[{"name":"taskID","type":"string","indexed":true,"internalType":"string"},{"name":"accuracy","type":"uint256","indexed":false,"internalType":"uint256"}],"anonymous":false},{"type":"event","name":"RewardsPaid","inputs":[{"name":"taskID","type":"string","indexed":true,"internalType":"string"}],"anonymous":false},{"type":"event","name":"ScoreRevealed","inputs":[{"name":"taskID","type":"string","indexed":true,"internalType":"string"},{"name":"miner","type":"address","indexed":false,"internalType":"address"},{"name":"score","type":"uint256","indexed":false,"internalType":"uint256"}],"anonymous":false},{"type":"error","name":"ReentrancyGuardReentrantCall","inputs":[]}],"bytecode":{"object":"0x6080604052348015600e575f5ffd5b50604051610e79380380610e79833981016040819052602b916053565b60015f81905580546001600160a01b0319166001600160a01b0392909216919091179055607e565b5f602082840312156062575f5ffd5b81516001600160a01b03811681146077575f5ffd5b9392505050565b610dee8061008b5f395ff3fe608060405234801561000f575f5ffd5b5060043610610085575f3560e01c8063ba1a8e2811610058578063ba1a8e281461012d578063e2fdcc1714610140578063f7bc0fd81461016b578063f85ebb8d146101c4575f5ffd5b806325b1a7be1461008957806358be6eec1461009e5780637c6e3ce5146100dc578063a716bae61461011a575b5f5ffd5b61009c610097366004610a61565b6101f2565b005b6100c96100ac366004610b55565b805160208183018101805160038252928201919093012091525481565b6040519081526020015b60405180910390f35b61010a6100ea366004610b55565b805160208183018101805160058252928201919093012091525460ff1681565b60405190151581526020016100d3565b61009c610128366004610a61565b610430565b61009c61013b366004610b8f565b6105ea565b600154610153906001600160a01b031681565b6040516001600160a01b0390911681526020016100d3565b6101af610179366004610c46565b81516020818401810180516002825292820194820194909420919093529091525f90815260409020805460019091015460ff1682565b604080519283529015156020830152016100d3565b61010a6101d2366004610b55565b805160208183018101805160048252928201919093012091525460ff1681565b60048585604051610204929190610c91565b9081526040519081900360200190205460ff1661025a5760405162461bcd60e51b815260206004820152600f60248201526e1514081b9bdd081c995d99585b1959608a1b60448201526064015b60405180910390fd5b6002858560405161026c929190610c91565b9081526040805160209281900383019020335f908152925290206001015460ff16156102cd5760405162461bcd60e51b815260206004820152601060248201526f105b1c9958591e481c995d99585b195960821b6044820152606401610251565b5f83838787336040516020016102e7959493929190610ca0565b6040516020818303038152906040528051906020012090508181146103455760405162461bcd60e51b8152602060048201526014602482015273125b9d985b1a59081cd8dbdc99481c995d99585b60621b6044820152606401610251565b60408051808201825285815260016020820152905160029061036a9089908990610c91565b9081526040805160209281900383018120335f908152908452919091208351815592909101516001909201805460ff19169215159290921790915584906003906103b79089908990610c91565b90815260200160405180910390205f8282546103d39190610cf0565b90915550506040516103e89087908790610c91565b6040805191829003822033835260208301879052917fcf06e8f7f78ae165ff3ba36083e28ca166db3f56b5d0889667167a92e0898a21910160405180910390a2505050505050565b60015460405163c1cf9d2b60e01b81525f916001600160a01b03169063c1cf9d2b906104629089908990600401610d09565b602060405180830381865afa15801561047d573d5f5f3e3d5ffd5b505050506040513d601f19601f820116820180604052508101906104a19190610d37565b116104ee5760405162461bcd60e51b815260206004820152601f60248201527f5461736b206e6f7420616374697665206f7220657363726f7720656d707479006044820152606401610251565b6040805160208101859052908101839052819060600160405160208183030381529060405280519060200120146105675760405162461bcd60e51b815260206004820152601760248201527f496e76616c69642061636375726163792072657665616c0000000000000000006044820152606401610251565b60016004868660405161057b929190610c91565b908152604051908190036020018120805492151560ff19909316929092179091556105a99086908690610c91565b604051908190038120848252907f939c91dabf5d4e37fafdd82ead7b3d88546b9de2d34d00733022d6a9576e7dcb9060200160405180910390a25050505050565b6105f26109f4565b60058484604051610604929190610c91565b9081526040519081900360200190205460ff16156106645760405162461bcd60e51b815260206004820152601b60248201527f5265776172647320616c726561647920646973747269627574656400000000006044820152606401610251565b60048484604051610676929190610c91565b9081526040519081900360200190205460ff166106cd5760405162461bcd60e51b81526020600482015260156024820152741058d8dd5c9858de481b9bdd081c995d99585b1959605a1b6044820152606401610251565b60015460405163c1cf9d2b60e01b81525f916001600160a01b03169063c1cf9d2b906106ff9088908890600401610d09565b602060405180830381865afa15801561071a573d5f5f3e3d5ffd5b505050506040513d601f19601f8201168201806040525081019061073e9190610d37565b90505f811161077b5760405162461bcd60e51b8152602060048201526009602482015268139bc81c995dd85c9960ba1b6044820152606401610251565b5f6003868660405161078e929190610c91565b908152602001604051809103902054116107d65760405162461bcd60e51b81526020600482015260096024820152684e6f2073636f72657360b81b6044820152606401610251565b815f5b81811015610971575f600288886040516107f4929190610c91565b90815260200160405180910390205f87878581811061081557610815610d4e565b905060200201602081019061082a9190610d62565b6001600160a01b0316815260208082019290925260409081015f208151808301909252805482526001015460ff1615801592820183905290925061086e5750805115155b15610968575f60038989604051610886929190610c91565b9081526040519081900360200190205482516108a29087610d82565b6108ac9190610d99565b90505f8787858181106108c1576108c1610d4e565b90506020020160208101906108d69190610d62565b6001600160a01b0316826040515f6040518083038185875af1925050503d805f811461091d576040519150601f19603f3d011682016040523d82523d5f602084013e610922565b606091505b50509050806109655760405162461bcd60e51b815260206004820152600f60248201526e151c985b9cd9995c8819985a5b1959608a1b6044820152606401610251565b50505b506001016107d9565b50600160058787604051610986929190610c91565b908152604051908190036020018120805492151560ff19909316929092179091556109b49087908790610c91565b604051908190038120907fb390716143d6a1d582c0f7a196bd9fc16087431699b87ebe7c3bdc6a7ffd726e905f90a250506109ee60015f55565b50505050565b60025f5403610a1657604051633ee5aeb560e01b815260040160405180910390fd5b60025f55565b5f5f83601f840112610a2c575f5ffd5b50813567ffffffffffffffff811115610a43575f5ffd5b602083019150836020828501011115610a5a575f5ffd5b9250929050565b5f5f5f5f5f60808688031215610a75575f5ffd5b853567ffffffffffffffff811115610a8b575f5ffd5b610a9788828901610a1c565b9099909850602088013597604081013597506060013595509350505050565b634e487b7160e01b5f52604160045260245ffd5b5f82601f830112610ad9575f5ffd5b813567ffffffffffffffff811115610af357610af3610ab6565b604051601f8201601f19908116603f0116810167ffffffffffffffff81118282101715610b2257610b22610ab6565b604052818152838201602001851015610b39575f5ffd5b816020850160208301375f918101602001919091529392505050565b5f60208284031215610b65575f5ffd5b813567ffffffffffffffff811115610b7b575f5ffd5b610b8784828501610aca565b949350505050565b5f5f5f5f60408587031215610ba2575f5ffd5b843567ffffffffffffffff811115610bb8575f5ffd5b610bc487828801610a1c565b909550935050602085013567ffffffffffffffff811115610be3575f5ffd5b8501601f81018713610bf3575f5ffd5b803567ffffffffffffffff811115610c09575f5ffd5b8760208260051b8401011115610c1d575f5ffd5b949793965060200194505050565b80356001600160a01b0381168114610c41575f5ffd5b919050565b5f5f60408385031215610c57575f5ffd5b823567ffffffffffffffff811115610c6d575f5ffd5b610c7985828601610aca565b925050610c8860208401610c2b565b90509250929050565b818382375f9101908152919050565b8581528460208201528284604083013760609190911b6bffffffffffffffffffffffff1916604091909201908101919091526054019392505050565b634e487b7160e01b5f52601160045260245ffd5b80820180821115610d0357610d03610cdc565b92915050565b60208152816020820152818360408301375f818301604090810191909152601f909201601f19160101919050565b5f60208284031215610d47575f5ffd5b5051919050565b634e487b7160e01b5f52603260045260245ffd5b5f60208284031215610d72575f5ffd5b610d7b82610c2b565b9392505050565b8082028115828204841417610d0357610d03610cdc565b5f82610db357634e487b7160e01b5f52601260045260245ffd5b50049056fea26469706673582212209e050255ed15f0d0db117d0aa9c1fe8d2fb15ae349c04b34795e57869f0f6a3464736f6c634300081c0033","linkReferences":{}},"methodIdentifiers":{"accuracyRevealed(string)":"f85ebb8d","distribute(string,address[])":"ba1a8e28","escrow()":"e2fdcc17","minerReveals(string,address)":"f7bc0fd8","revealAccuracy(string,uint256,bytes32,bytes32)":"a716bae6","revealScore(string,uint256,bytes32,bytes32)":"25b1a7be","rewardsDistributed(string)":"7c6e3ce5","totalScore(string)":"58be6eec"},"id":25}